S00F000054657374696E672E7372656337
S11300000C9434000C9451000C9451000C94510045
S11300100C9451000C9451000C9451000C94510018
S11300200C9451000C9451000C9455010C94510003
S11300300C9451000C9451000C9415010C94510033
S11300400C9451000C9451000C9451000C94CF006A
S11300500C9451000C9451000C9451000C945100D8
S11300600C9451000C94510011241FBECFEFD8E022
S1130070DEBFCDBF11E0A0E0B1E0E4E7FDE002C0E7
S113008005900D92AE31B107D9F721E0AEE1B1E0B0
S113009001C01D92A93AB207E1F70E9453000C94E3
S11300A0B8060C940000CF93DF93CDB7DEB7C454E9
S11300B0D1090FB6F894DEBF0FBECDBF0E94AF00CA
S11300C00E94910178948FE39CE90197F1F700C0B5
S11300D000000E949C0125966CAF7DAF8EAF9FAF50
S11300E0259725966CAD7DAD8EAD9FAD25970E946D
S11300F095026B017C0125968CAC9DACAEACBFAC7B
S1130100259780E090E00E94C4029B01AC01C501E8
S1130110B4010E94B60120E030E048EC52E40E94B1
S113012052030E9495027F936F93DF92CF9280E0F7
S113013091E09F938F93CE0101969F938F930E949A
S1130140CE030FB6F894DEBF0FBECDBF80911E0163
S11301508111FCCFCE0101960E94B900B4CF86E094
S11301608093C20087E68093C40088E98093C1002D
S1130170089521E020931E012091C10025FD0EC0A9
S1130180BC014FE750E089E291E00E94BF03109266
S1130190A801E1ECF0E080818062808308951F92E1
S11301A00F920FB60F9211248F93EF93FF93E09168
S11301B01F01F0E0E75DFE4F8081882371F0E0913C
S11301C01F01F0E0E75DFE4F80818093C6008091BF
S11301D01F018F5F80931F0109C010921F01E1EC82
S11301E0F0E080818F7D808310921E01FF91EF915A
S11301F08F910F900FBE0F901F90189584B58E7F2E
S113020084BD84B5826084BD85B5877F85BD85B591
S11302108B7F85BD85B5836085BD89EF87BDEEE69F
S1130220F0E080818260808308951F920F920FB660
S11302300F9211248F93809121018823A1F0809142
S113024022018F5F80932201873968F01092240184
S1130250109223011092210181E0809320011092D9
S11302602601109225018F910F900FBE0F901F90C1
S11302701895E0E8F0E080818C7F8083E1E8F0E08D
S11302808081877E808380818B7F8083808183606F
S11302908083808180648083808180688083EFE6AE
S11302A0F0E080818062808308951F920F920FB6E0
S11302B00F9211242F933F938F939F938091250145
S11302C090912601909328018093270180918600C4
S11302D0909187009093260180932501109222012A
S11302E081E08093210180912001882319F01092EC
S11302F020010EC0809125019091260120912701B3
S113030030912801821B930B909324018093230145
S11303109F918F913F912F910F900FBE0F901F903F
S1130320189584B18E7F84B985B1816085B90E94A6
S1130330FE000E9439010895F894609123017091A0
S1130340240178946115710569F080E090E00E94C1
S1130350C4029B01AC0165E575E382E097E40E9469
S11303602302089560E070E0CB0108955058BB2744
S1130370AA270E94CE010C9418030E940A0338F0A5
S11303800E94110320F039F49F3F19F426F40C94D1
S113039007030EF4E095E7FB0C940103E92F0E9498
S11303A0290358F3BA17620773078407950720F0E7
S11303B079F4A6F50C944B030EF4E0950B2EBA2FAA
S11303C0A02D0B01B90190010C01CA01A001112457
S11303D0FF27591B99F0593F50F4503E68F11A1603
S11303E0F040A22F232F342F4427585FF3CF469594
S11303F037952795A795F0405395C9F77EF41F16B6
S1130400BA0B620B730B840BBAF09150A1F0FF0F7F
S1130410BB1F661F771F881FC2F70EC0BA0F621F6B
S1130420731F841F48F4879577956795B795F7955B
S11304309E3F08F0B0CF9395880F08F09927EE0FF0
S11304409795879508950E9437020C9418030E948B
S1130450110358F00E940A0340F029F45F3F29F089
S11304600C94010351110C944C030C9407030E9447
S1130470290368F39923B1F3552391F3951B550B85
S1130480BB27AA2762177307840738F09F5F5F4F63
S1130490220F331F441FAA1FA9F335D00E2E3AF0A2
S11304A0E0E832D091505040E695001CCAF72BD0BA
S11304B0FE2F29D0660F771F881FBB1F261737070B
S11304C04807AB07B0E809F0BB0B802DBF01FF273D
S11304D093585F4F3AF09E3F510578F00C94010316
S11304E00C944C035F3FE4F3983ED4F386957795E0
S11304F06795B795F7959F5FC9F7880F911D9695F6
S1130500879597F90895E1E0660F771F881FBB1F51
S1130510621773078407BA0720F0621B730B840BFE
S1130520BA0BEE1F88F7E09508950E94310388F016
S11305309F5798F0B92F9927B751B0F0E1F0660FA3
S1130540771F881F991F1AF0BA95C9F714C0B130E4
S113055091F00E944B03B1E008950C944B03672F74
S1130560782F8827B85F39F0B93FCCF38695779513
S11305706795B395D9F73EF49095809570956195FC
S11305807F4F8F4F9F4F0895E89409C097FB3EF427
S113059090958095709561957F4F8F4F9F4F9923CC
S11305A0A9F0F92F96E9BB279395F695879577954A
S11305B06795B795F111F8CFFAF4BB0F11F460FF0A
S11305C01BC06F5F7F4F8F4F9F4F16C0882311F062
S11305D096E911C0772321F09EE8872F762F05C076
S11305E0662371F096E8862F70E060E02AF09A9511
S11305F0660F771F881FDAF7880F9695879597F906
S1130600089597F99F6780E870E060E008959FEF90
S113061080EC089500240A94161617061806090695
S1130620089500240A941216130614060506089564
S1130630092E0394000C11F4882352F0BB0F40F4EC
S1130640BF2B11F460FF04C06F5F7F4F8F4F9F4F2C
S1130650089557FD9058440F551F59F05F3F71F0AE
S11306604795880F97FB991F61F09F3F79F0879515
S11306700895121613061406551FF2CF4695F1DF9E
S113068008C0161617061806991FF1CF869571052E
S1130690610508940895E894BB2766277727CB0162
S11306A097F908950E9465030C9418030E940A03A5
S11306B038F00E94110320F0952311F00C940103EB
S11306C00C94070311240C944C030E94290370F327
S11306D0959FC1F3950F50E0551F629FF001729FE3
S11306E0BB27F00DB11D639FAA27F00DB11DAA1FF2
S11306F0649F6627B00DA11D661F829F2227B00D3F
S1130700A11D621F739FB00DA11D621F839FA00DC9
S1130710611D221F749F3327A00D611D231F849F19
S1130720600D211D822F762F6A2F11249F57504070
S11307309AF0F1F088234AF0EE0FFF1FBB1F661FEB
S1130740771F881F91505040A9F79E3F510580F0B4
S11307500C9401030C944C035F3FE4F3983ED4F3F0
S1130760869577956795B795F795E7959F5FC1F758
S1130770FE2B880F911D9695879597F90895FB0197
S1130780DC014150504048F001900D920020C9F71F
S113079001C01D9241505040E0F70895AEE0B0E032
S11307A0E4EDF3E00C948F060D891E8986E08C83BA
S11307B01A8309838FEF9FE79E838D83AE01475E83
S11307C05F4F6F89788DCE0101960E94F003EF810F
S11307D0F885E00FF11F10822E96E4E00C94AB062E
S11307E0ABE0B0E0E6EFF3E00C9481066C017B0132
S11307F08A01FC0117821682838181FFCCC1CE015C
S113080001963C01F6019381F70193FD859193FFD5
S113081081917F01882309F4BAC1853239F493FDAB
S1130820859193FF81917F01853229F4B60190E08F
S11308300E94E705E7CF912C212C312CFFE1F31521
S1130840D8F08B3279F038F4803279F08332A1F425
S1130850232D20611DC08D3261F0803369F4232D76
S1130860216016C0832D8260382EE32DE4603E2E75
S11308702AC0F32DF8601DC037FC2DC020ED280FD1
S11308802A3040F08E32B9F436FC81C1232D206425
S1130890322E19C036FE06C08AE0989E200D11241F
S11308A0922E11C0EAE02E9E200D1124222EF32D4B
S11308B0F0623F2E08C08C3621F4832D8068382ED8
S11308C002C0883641F4F70193FD859193FF81912D
S11308D07F018111B3CF982F9F7D9554933028F4D5
S11308E00C5F1F4F9FE399830DC0833631F083372C
S11308F071F0833509F059C021C0F80180818983E2
S11309000E5F1F4F88248394912C530113C0280138
S1130910F2E04F0E511CF801A080B18036FE03C0F6
S1130920692D70E002C06FEF7FEFC5010E94DC0506
S11309304C018201F32DFF773F2E16C0280122E0DF
S1130940420E511CF801A080B18036FE03C0692D0F
S113095070E002C06FEF7FEFC5010E94D1054C012A
S1130960F32DF0683F2E820133FC1BC0822D90E0F2
S113097088169906B0F4B60180E290E00E94E7057B
S11309802A94F4CFF50137FC859137FE81915F01FC
S1130990B60190E00E94E70521102A9421E0821A12
S11309A091088114910471F7E8C0843611F08936F6
S11309B041F5F80137FE07C060817181828193811E
S11309C00C5F1F4F08C060817181072E000C880BDB
S11309D0990B0E5F1F4FF32DFF763F2E97FF09C033
S11309E090958095709561957F4F8F4F9F4FF068DC
S11309F03F2E2AE030E0A3010E942306882E8618A9
S1130A0045C0853731F4232D2F7EB22E2AE030E005
S1130A1025C0932D997FB92E8F36C1F018F48835EF
S1130A2079F0B5C0803719F0883721F0B0C0E92FCC
S1130A30E061BE2EB4FE0DC0FB2DF460BF2E09C0D4
S1130A4034FE0AC0292F2660B22E06C028E030E00A
S1130A5005C020E130E002C020E132E0F801B7FE39
S1130A6007C060817181828193810C5F1F4F06C032
S1130A706081718180E090E00E5F1F4FA3010E94AE
S1130A802306882E8618FB2DFF773F2E36FE0DC0D9
S1130A90232D2E7FA22E891458F434FE0BC032FC71
S1130AA009C0832D8E7EA82E05C0B82CA32C03C0AC
S1130AB0B82C01C0B92CA4FE0FC0FE01E80DF11D35
S1130AC08081803321F49A2D997EA92E09C0A2FE3B
S1130AD006C0B394B39404C08A2D867809F0B39405
S1130AE0A3FC11C0A0FE06C0B21488F4280C922CFA
S1130AF09B180EC0B21460F4B60180E290E00E942C
S1130B00E705B394F7CFB21418F42B1802C0982C4D
S1130B10212CA4FE10C0B60180E390E00E94E705FA
S1130B20A2FE17C0A1FC03C088E790E002C088E5DC
S1130B3090E0B6010CC08A2D867859F0A1FE02C05F
S1130B408BE201C080E2A7FC8DE2B60190E00E9436
S1130B50E705891438F4B60180E390E00E94E705C4
S1130B609A94F7CF8A94F301E80DF11D8081B601C0
S1130B7090E00E94E7058110F5CF222009F442CECF
S1130B80B60180E290E00E94E7052A94F6CFF601D0
S1130B908681978102C08FEF9FEF2B96E2E10C9440
S1130BA09D06FC010590615070400110D8F78095B6
S1130BB090958E0F9F1F0895FC0161507040019025
S1130BC00110D8F7809590958E0F9F1F08950F936D
S1130BD01F93CF93DF93FB01238121FD03C08FEF8C
S1130BE09FEF2CC022FF16C0468157812481358196
S1130BF04217530744F4A081B1819D012F5F3F4FF9
S1130C00318320838C93268137812F5F3F4F378335
S1130C10268314C08B01EC01FB010084F185E02DD7
S1130C200995892BE1F6D80116968D919C91179719
S1130C30019617969C938E931697CE01DF91CF91D0
S1130C401F910F910895FA01AA27283051F12031FC
S1130C5081F1E8946F936E7F6E5F7F4F8F4F9F4F4C
S1130C60AF4FB1E03ED0B4E03CD0670F781F891F8E
S1130C709A1FA11D680F791F8A1F911DA11D6A0F5C
S1130C80711D811D911DA11D20D009F468943F910F
S1130C902AE0269F11243019305D3193DEF6CF010E
S1130CA00895462F4770405D4193B3E00FD0C9F7D4
S1130CB0F6CF462F4F70405D4A3318F0495D31FD41
S1130CC04052419302D0A9F7EACFB4E0A695979594
S1130CD0879577956795BA95C9F70097610571056A
S1130CE008959B01AC010A2E0694579547953795B4
S1130CF02795BA95C9F7620F731F841F951FA01D0E
S1130D0008952F923F924F925F926F927F928F92AB
S1130D109F92AF92BF92CF92DF92EF92FF920F9386
S1130D201F93CF93DF93CDB7DEB7CA1BDB0B0FB690
S1130D30F894DEBF0FBECDBF09942A88398848884D
S1130D405F846E847D848C849B84AA84B984C884E3
S1130D50DF80EE80FD800C811B81AA81B981CE0FDA
S1130D60D11D0FB6F894DEBF0FBECDBFED010895BF
S1070D70F894FFCF21
S1130D7441637475616C20466C6F773A2025752E37
S1110D842530327520204C2F6D696E0D0A004B
S9030000FC
